:020000040800F2
:1000000000000220F1A6000855A0000863A0000827
:1000100069A000086FA0000875A00008000000009B
:100020000000000000000000000000007BA00008AD
:1000300089A000080000000097A00008A5A0000803
:1000400041A7000841A7000841A7000841A70008F0
:1000500041A7000841A7000841A7000841A70008E0
:1000600041A7000841A7000841A7000841A70008D0
:1000700041A7000841A7000841A7000841A70008C0
:1000800041A7000841A7000841A7000841A70008B0
:1000900041A7000841A7000841A7000841A70008A0
:1000A00041A7000841A7000841A7000841A7000890
:1000B00041A7000841A7000841A7000841A7000880
:1000C00041A7000841A7000841A7000841A7000870
:1000D00041A7000841A7000841A7000841A7000860
:1000E00041A7000841A7000841A7000841A7000850
:1000F00041A7000841A7000841A7000841A7000840
:1001000041A7000841A7000841A7000841A700082F
:1001100041A7000841A7000841A7000841A700081F
:1001200041A7000841A7000841A7000841A700080F
:1001300041A70008000000000000000041A70008DF
:1001400041A7000841A7000841A70008B1A0000886
:1001500041A7000841A7000841A7000841A70008DF
:1001600041A7000841A7000841A7000841A70008CF
:1001700041A7000841A7000841A7000800000000AF
:100180000000000041A7000800000000000000007F
:1001900041A70008000000000000000041A700087F
:1001A00000000000000000000000000041A700085F
:1001B00041A7000841A7000841A7000841A700087F
:0401C00041A700084B
:1001D00010B5054C237833B9044B13B10448AFF381
:1001E00000800123237010BD7C000020000000006F
:1001F00038B6000808B5034B1BB103490348AFF3F9
:10020000008008BD000000008000002038B6000813
:1002100001F0FF01102A2BDB10F0070F08D010F8B7
:10022000013B013A8B422DD010F0070F42B3F6D1BB
:10023000F0B441EA012141EA014122F007047FF0D4
:1002400000070023F0E80256083C85EA010586EA2B
:10025000010685FA47F5A3FA87F586FA47F6A5FA67
:1002600087F68EB9EED1F0BC01F0FF0102F0070273
:1002700032B110F8013B013A83EA010313B1F8D11E
:100280000020704701387047002D06BF35460338FF
:10029000073815F0010F07D1013015F4807F02BF38
:1002A000013015F4C03F0130F0BC0138704700BF89
:1002B00053B94AB9002908BF00281CBF4FF0FF31CD
:1002C0004FF0FF3000F072B9ADF1080C6DE904CECB
:1002D00000F006F8DDF804E0DDE9022304B0704721
:1002E0002DE9F047089E04468846002B4BD18A42F0
:1002F000154667D9B2FA82F24AB1C2F1200701FA73
:1003000002F320FA07F7954047EA030894404FEAC2
:10031000154E230CB8FBFEF71FFA85FC0EFB178861
:1003200043EA084307FB0CF1994209D9EB1807F19E
:10033000FF3080F01B81994240F21881023F2B442C
:100340005B1AA4B2B3FBFEF00EFB103344EA034485
:1003500000FB0CFCA44509D92C1900F1FF3380F0F7
:100360000781A44540F2048102382C4440EA07404A
:10037000A4EB0C0400271EB1D4400023C6E90043BF
:100380003946BDE8F0878B4209D9002E00F0EB809A
:100390000027C6E9000138463946BDE8F087B3FAC0
:1003A00083F7002F47D18B4202D3824200F2FA80BA
:1003B000841A61EB030301209846002EE0D0C6E9C1
:1003C0000048DDE702B9FFDEB2FA82F2002A40F00F
:1003D0008F80491B4FEA154E1FFA85F80127B1FBA4
:1003E000FEFC230C0EFB1C1143EA014308FB0CF13D
:1003F000994207D9EB180CF1FF3002D2994200F272
:10040000CD808446591AA3B2B1FBFEF00EFB101446
:1004100043EA044408FB00F8A04507D92C1900F171
:10042000FF3302D2A04500F2B6801846A4EB0804C0
:1004300040EA0C409FE7C7F1200CBB4022FA0CFEBB
:100440004EEA030E01FA07F420FA0CF521FA0CF338
:100450004FEA1E482543B3FBF8F92C0C08FB19336F
:100460001FFA8EFA44EA034309FB0AF49C4202FA9B
:1004700007F200FA07F10BD91EEB030309F1FF3075
:1004800080F087809C4240F28480A9F10209734485
:100490001B1BADB2B3FBF8F008FB103345EA034475
:1004A00000FB0AFAA24508D91EEB040400F1FF3351
:1004B0006BD2A24569D90238744440EA0940A0FBD6
:1004C0000289A4EB0A044C45C2464B4654D351D092
:1004D000002E69D0B1EB0A0564EB030404FA0CFCAE
:1004E000FD40FC404CEA0505C6E90054002747E7FB
:1004F000C2F1200320FA03F7954001FA02F021FA35
:1005000003F34FEA154E3843010CB3FBFEF71FFA15
:1005100085F80EFB173341EA034107FB08F38B42D2
:1005200004FA02F407D9691807F1FF3C2FD28B4275
:100530002DD9023F2944CB1A81B2B3FBFEF00EFB4A
:10054000103341EA034100FB08F38B4207D96918D5
:1005500000F1FF3C17D28B4215D902382944C91A41
:1005600040EA07473BE73746304609E70746E7E6F4
:100570001846FBE64145ABD2B8EB020A69EB0E0226
:1005800001381346A4E76046E9E7184695E7674651
:10059000D1E781467CE702382C4447E7ACF1020CF6
:1005A0002B442FE7384608E73746E9E6704700BF97
:1005B00080B483B000AF00237B60104B1B6B0F4AED
:1005C00043F0800313630D4B1B6B03F080037B60D0
:1005D0007B6800233B60094B1B6B084A43F0010317
:1005E0001363064B1B6B03F001033B603B6800BFCA
:1005F0000C37BD465DF8047B704700BF00380240F1
:1006000080B582B000AF0346FB71064AFB791370D8
:10061000044B1B78194604480AF06EF900BF0837EE
:10062000BD4680BD3521002050B6000880B582B09F
:1006300000AF00F02FFE00F01BF80346002B07D19F
:10064000094B00221A7009480AF0CAF9012307E091
:10065000054B01221A7000F059FC0346FB71FB792F
:1006600018460837BD4680BD000000205CB6000873
:1006700080B582B000AF0123FB714FF48061074861
:1006800001F0D6FE0346002B01D00023FB71FB795D
:10069000DBB218460837BD4680BD00BF00040240EB
:1006A00080B584B000AF78600123FB737B68184687
:1006B00000F0A6F97B682C33184600F009FB0346CE
:1006C000FB737B681B695A1C7B685A647B681B7EC2
:1006D000DBB2023301229A407B685B6C02FB03F2BF
:1006E0007B685A647B681B7ADBB21A46012393400D
:1006F0001A467B689A647B685B6C7A68926C02FB32
:1007000003F27B685A64FB7B18461037BD4680BDF8
:1007100090B587B000AF78600B467B800123FB75F6
:1007200000233B6111E03B695A1C3A614FF4967219
:10073000934207D91B480AF053F911231846FFF7D3
:100740005FFF29E00A2001F003F800F01CFE0346D9
:10075000FB73FB7BFF2BE6D0FB7BFE2B13D17B884F
:100760001946786800F021FE00F00DFE03461B02DA
:100770001CB200F008FE03461BB223431BB2BB8130
:100780000023FB7508E0FB7B194607480AF0B4F824
:100790000F231846FFF734FFFB7D18461C37BD4674
:1007A00090BD00BFECB600081CB7000890B589B03A
:1007B00000AFF860B9601346FB80BB684FF00004DF
:1007C000C7E90434274B1B78032293420BD0D7E9A7
:1007D00004124FF000034FF00004540244EAD154D5
:1007E0004B02C7E90434FB88012B12D13B6901227B
:1007F0001946112000F054FB0346FB77FB7F002BCA
:1008000028D14FF40071F868FFF782FF0346FB77A9
:1008100020E03B6901221946122000F041FB03460B
:10082000FB774FF40071F868FFF772FF0346FB7720
:10083000FB6803F50073FB60FB88013BFB80FB88D2
:10084000002B02D0FB7F002BEBD0012200210C20DB
:1008500000F026FB00F078FDFB7F18462437BD46EC
:1008600090BD00BF3621002080B582B000AF0023CC
:100870007B60FF2000F076FD0346FF2B01D10023B3
:1008800007E07B6801337B607B68044A9342F0D9C0
:10089000012318460837BD4680BD00BFFEFFFF009C
:1008A00080B584B000AF78600B46FB70FFF7DCFFCB
:1008B0000346002B01D001232EE0FB78184600F000
:1008C00051FDFB78FD2B26D00023FB8109E0FB893D
:1008D0007A6813441B78184600F044FDFB89013305
:1008E000FB81FB89B3F5007FF1D3FF2000F03AFDD7
:1008F000FF2000F037FDFF2000F034FD0346FB81B0
:10090000FB8903F01F03052B05D013231846FFF7BF
:1009100077FE022300E0002318461037BD4680BD55
:1009200090B589B000AFF860B9601346FB80BB6832
:100930004FF00004C7E90434304B1B780322934284
:100940000BD0D7E904124FF000034FF0000454021B
:1009500044EAD1544B02C7E90434FB88012B11D17E
:100960003B6901221946182000F09AFA0346FB77EA
:10097000FB7F002B3AD1FE21F868FFF791FF034679
:10098000FB7733E01D4B1B78042293420AD00122EF
:100990000021372000F084FAFB8801221946172035
:1009A00000F07EFA3B6901221946192000F078FA1E
:1009B0000346FB77FB7F002B18D1FC21F868FFF77B
:1009C0006FFF0346FB77FB6803F50073FB60FB8852
:1009D000013BFB80FB88002B02D0FB7F002BECD07F
:1009E000FD210020FFF75CFF0346FB7700F0ACFC25
:1009F000FB7F18462437BD4690BD00BF362100203E
:100A000080B588B000AF78600023FB610123FB76DE
:100A10000023FF220021092000F0E2FC0346002B06
:100A200020D1FE2000F068FD0346002B1AD10023E0
:100A3000FB610CE000F0A7FC0346194607F1080231
:100A4000FB6913440A461A70FB690133FB61FB69B9
:100A50000F2BEFD9FF2000F085FCFF2000F082FC77
:100A60000023FB7600F082FDFB7E002B40F02B8103
:100A70003B7A9B09DAB27B681A703B7A9B10DBB237
:100A800003F00F03DAB27B685A703B7A03F003037A
:100A9000DAB27B689A707A7A7B68DA70BA7A7B68A5
:100AA0001A71FA7A7B685A713B7B9BB21B019AB22E
:100AB0007B68DA807B68DB889AB27B7B1B09DBB2C0
:100AC0009BB213439AB27B68DA807B7B03F00F03FF
:100AD000DAB27B681A72BB7BDB09DAB27B685A72C6
:100AE000BB7B9B11DBB203F00103DAB27B689A7225
:100AF000BB7B5B11DBB203F00103DAB27B68DA7215
:100B0000BB7B1B11DBB203F00103DAB27B681A7303
:100B10007B6800225A73BB7B9B0203F440627B68B4
:100B20001A617B681B69FA7B92001A437B681A6121
:100B30007B681B693A7C9209D2B21A437B681A61BE
:100B40003B7CDB10DBB203F00703DAB27B681A757B
:100B50003B7C03F00703DAB27B685A757B7C5B0948
:100B6000DAB27B689A757B7C9B10DBB203F00703DB
:100B7000DAB27B68DA757B7C5B00DBB203F00603DC
:100B8000DAB27B681A767B681B7EDAB2BB7CDB0943
:100B9000DBB21343DAB27B681A76BB7C9B11DBB203
:100BA00003F00103DAB27B685A76BB7C5B00DBB2F0
:100BB00003F07E03DAB27B689A767B689B7EDAB2BA
:100BC000FB7CDB09DBB21343DAB27B689A76FB7CF1
:100BD00003F07F03DAB27B68DA763B7DDB09DAB2B9
:100BE0007B681A773B7D5B11DBB203F00303DAB25B
:100BF0007B685A773B7D9B10DBB203F00703DAB2C8
:100C00007B689A773B7D9B00DBB203F00C03DAB282
:100C10007B68DA777B68DB7FDAB27B7D9B09DBB2AE
:100C20001343DAB27B68DA777B7D5B11DBB203F0CA
:100C30000103DAB27B6883F820207B68002283F806
:100C400021207B7D03F00103DAB27B6883F8222048
:100C5000BB7DDB09DAB27B6883F82320BB7D9B1167
:100C6000DBB203F00103DAB27B6883F82420BB7D9A
:100C70005B11DBB203F00103DAB27B6883F8252055
:100C8000BB7D1B11DBB203F00103DAB27B6883F892
:100C90002620BB7D9B10DBB203F00303DAB27B6836
:100CA00083F82720BB7D03F00303DAB27B6883F867
:100CB0002820FB7D5B08DAB27B6883F829207B68FB
:100CC000012283F82A20FB7E18462037BD4680BDCE
:100CD00080B588B000AF78600023FB610123FB760C
:100CE0000023FF2200210A2000F07AFB0346002B9C
:100CF00020D1FE2000F000FC0346002B1AD1002377
:100D0000FB610CE000F03FFB0346194607F10802C7
:100D1000FB6913440A461A70FB690133FB61FB69E6
:100D20000F2BEFD9FF2000F01DFBFF2000F01AFB76
:100D30000023FB7600F01AFCFB7E002B6CD13A7A84
:100D40007B681A707B7A9BB21B029AB27B685A80CE
:100D50007B685B889AB2BB7A9BB213439AB27B687A
:100D60005A80FB7A1B061A467B685A607B685B6870
:100D70003A7B12041A437B685A607B685B687A7B13
:100D800012021A437B685A607B685B68BA7B1A431D
:100D90007B685A60FA7B7B681A723A7C7B685A726D
:100DA0007B7C1B061A467B68DA607B68DB68BA7C52
:100DB00012041A437B68DA607B68DB68FA7C1202F3
:100DC0001A437B68DA607B68DB683A7D1A437B688C
:100DD000DA607B681B7CDAB27B7D1B09DBB21343D4
:100DE000DAB27B681A747B7D1B029BB203F47063DA
:100DF0009AB27B685A827B685B8A9AB2BB7D9BB24F
:100E000013439AB27B685A82FB7D5B08DAB27B6837
:100E10001A757B6801225A75FB7E18462037BD463D
:100E200080BD80B584B000AF396011461A460346D4
:100E3000FB710B46BB7113467B710123FB737B79FE
:100E4000BA79F879396800F0CBFA0346002B01D162
:100E50000023FB7300F08AFBFB7B18461037BD466E
:100E600080BD80B584B000AF786000F065FC0246BC
:100E70007B681344FB6009E000F05EFC0246FB68FF
:100E8000D31A002B02DB4FF0FF3305E000F07BFAB2
:100E90000346FF2BF0D1002318461037BD4680BD16
:100EA00080B582B000AF03463960FB711346BB7159
:100EB0004FF416731846FFF7D4FFBA79FB793968F7
:100EC000184600F0D7FA034618460837BD4680BDDD
:100ED00080B582B000AF03463960FB7187220021E4
:100EE0003720FFF7DDFFFB79872239681846FFF7C7
:100EF000D7FF034618460837BD4680BD80B400AF13
:100F000000231846BD465DF8047B704780B584B069
:100F100000AF0023FB600023BB601FE0012395228C
:100F200000210020FFF77DFF0346002B03D1554829
:100F300009F056FD17E0544809F052FDBB6840F631
:100F4000FF72934204D1514809F04AFD012394E015
:100F5000C82000F0FDFBBB680133BB60BB6840F6F6
:100F6000FE729342DADD0023FB6087224FF4D571D5
:100F70000820FFF795FF0346052B06D1444809F0EA
:100F80002FFD0122434B1A7023E00023FB7108E080
:100F900000F0F9F903461A463F4B1A70FB7901330A
:100FA000FB71FB79032BF3D93B4B1B78AA2B06D1A2
:100FB0003A4809F015FD0222364B1A7009E0FB6829
:100FC0005A1CFA60642BD0DD354809F009FD012375
:100FD00053E0304B1B780222934202D14FF0804302
:100FE00000E000233B600023FB600FE02D4809F088
:100FF000F7FC0A2000F0ACFBFB685A1CFA60322BAD
:1010000004DD294809F0ECFC012336E03968292089
:10101000FFF75EFF03461A461F4B1A701E4B1B78E4
:10102000002BE3D11B4B1B780222934224D1872251
:1010300000213A20FFF734FF0346002B04D01B4861
:1010400009F0CEFC012318E000F09DF9034603F0FF
:10105000C003C02B05D1164809F0C2FC03220D4B7A
:101060001A700023BB7104E000F08DF9BB790133E5
:10107000BB71BB79022BF7D9002318461037BD4648
:1010800080BD00BF54B7000870B700088CB70008D7
:10109000A4B700083621002034210020B8B700088A
:1010A000CCB70008E4B7000800B8000810B8000882
:1010B00020B8000880B582B000AF78607B681B68FC
:1010C000084A934209D1084B5B6C074A23F48053CA
:1010D0005364F021054801F0B9F800BF0837BD4658
:1010E00080BD00BF003001400038024000000240D7
:1010F00080B58AB000AF786000233B61284B1B6B42
:10110000274A43F001031363254B1B6B03F00103D4
:101110003B613B690023FB60214B1B6B204A43F082
:10112000010313631E4B1B6B03F00103FB60FB68A1
:1011300020237B610223BB610123FB6103233B620C
:1011400005237B6207F114031946164800F0ECFEF4
:1011500080237B6105237B620223FB6107F114037B
:101160001946104800F0E0FE40237B610223FB613A
:1011700007F1140319460B4800F0D6FE0023BB60AC
:10118000074B5B6C064A43F480535364044B5B6C1F
:1011900003F48053BB60BB6800BF2837BD4680BDE9
:1011A000003802400000024080B400AF00BFBD46DE
:1011B0005DF8047B704780B400AF00BFBD465DF8AA
:1011C000047B704780B500AF194803F077FB0346F6
:1011D000002B2BD1164B174A1A60154B4FF4827215
:1011E0005A60134B2022DA61114B00229A60104B97
:1011F00000225A610E4B00221A610D4B00229A62A6
:101200000B4B0A22DA620A4B0022DA60084B0022FA
:101210001A62074B4FF400729A61054B00225A6222
:101220000348FFF765FF024803F010F900BF80BDD7
:10123000980000200030014080B588B002AFF8600F
:10124000B9601346FB800023FB750A4B1B68FA88C4
:1012500000931346BA68F968074803F08DF903460E
:10126000FB75FB7D002B01D000F008F800BF18379C
:10127000BD4680BD040000209800002080B500AF6E
:10128000034803F047F9FFF79DFF00BF80BD00BF93
:101290009800002080B588B000AF00237B60274B0A
:1012A0001B6B264A43F001031363244B1B6B03F0B3
:1012B00001037B607B6800233B60204B1B6B1F4A54
:1012C00043F0020313631D4B1B6B03F002033B60EF
:1012D0003B681023BB600123FB6001233B610323B8
:1012E0007B6107F108031946154800F01DFE4FF415
:1012F0008063BB600023FB6001233B6103237B61B0
:1013000007F1080319460F4800F00EFEFFF75AFFD9
:10131000012210210A4801F0A3F80023FB7705E021
:10132000FF2000F01FF8FB7F0133FB77FB7F4A2B88
:10133000F6D900BF2037BD4680BD00BF003802404F
:10134000000002400004024080B500AF01221021DD
:10135000034801F085F8FF2000F004F800BF80BDCD
:101360000000024080B584B000AF0346FB7107F176
:101370000F01FB1D01221846FFF75EFFFB7B18469D
:101380001037BD4680BD80B582B000AF0023FB7131
:10139000FF23BB71F91DBB1D01221846FFF74CFF4F
:1013A000FB7918460837BD4680BD90B585B000AFC3
:1013B00078600B467B800023FB8109E0FB897A681B
:1013C000D418FFF7E0FF03462370FB890133FB814C
:1013D000FA897B889A42F1D300BF1437BD4690BD8D
:1013E00080B586B000AF396011461A460346FB71DE
:1013F0000B46BB7113467B7100237B61FB7943F085
:101400004003DBB23B733B681B0EDBB27B733B6874
:101410001B0CDBB2BB733B681B0ADBB2FB733B6884
:10142000DBB23B74BB797B7400221021104801F0C1
:1014300017F800237B610AE007F10C027B69134473
:101440001B781846FFF78EFF7B6901337B617B6950
:10145000052BF1D97B79802B05D07B79184600F0DC
:101460004BF8034600E0002318461837BD4680BD00
:101470000000024080B586B000AF03463960FB71C2
:101480001346BB7100237B61FB7943F04003DBB261
:101490003B733B681B0EDBB27B733B681B0CDBB200
:1014A000BB733B681B0ADBB2FB733B68DBB23B746C
:1014B000BB797B74002210210E4800F0D1FF00237D
:1014C0007B610AE007F10C027B6913441B78184624
:1014D000FFF748FF7B6901337B617B69052BF1D9FD
:1014E00000F02AF80346FB74FB7C18461837BD460B
:1014F00080BD00BF0000024080B584B000AF03464D
:10150000FB7140F6FF73FB6002E0FB68013BFB6090
:10151000FFF739FF03461A46FB79934202D0FB6876
:10152000002BF2D1FB68002B01D1032300E0002344
:1015300018461037BD4680BD80B582B000AF40F67A
:10154000FF737B6002E07B68013B7B60FFF71BFF62
:101550000346FB7097F90330002B02DA7B68002BFF
:10156000F1D1FB7818460837BD4680BD80B500AF85
:1015700001221021034800F073FFFF20FFF7F2FE65
:1015800000BF80BD0000024080B500AF114B124A81
:101590001A60104B4FF4E1325A600E4B00229A60F1
:1015A0000C4B0022DA600B4B00221A61094B0C2213
:1015B0005A61084B00229A61064B0022DA61054805
:1015C00003F036FA0346002B01D008F0D7FB00BF2A
:1015D00080BD00BF382100200010014080B588B0D8
:1015E00000AF78607B681B68124A93421ED10023CB
:1015F000BB60114B5B6C104A43F0100353640E4BFD
:101600005B6C03F01003BB60BB684FF4C063FB600E
:1016100002233B6101237B610323BB610723FB6141
:1016200007F10C031946054800F07EFC00BF203787
:10163000BD4680BD0010014000380240000002405D
:1016400080B584B000AFF860B9607A607B689AB208
:1016500041F28833B968044803F037FA7B681846CA
:101660001037BD4680BD00BF3821002080B500AFD7
:101670000E4B1B680D4A43F4007313600B4B1B6841
:101680000A4A43F480631360084B1B68074A43F41B
:1016900080731360032000F02FF9002000F008F899
:1016A00008F0B0FC0023184680BD00BF003C02409B
:1016B00080B582B000AF7860124B1A68124B1B786D
:1016C00019464FF47A73B3FBF1F3B2FBF3F3184608
:1016D00000F039F90346002B01D001230EE07B68AE
:1016E0000F2B0AD8002279684FF0FF3000F00FF975
:1016F000064A7B681360002300E001231846083780
:10170000BD4680BD140000200C0000200800002011
:1017100080B400AF064B1B781A46064B1B68134477
:10172000044A136000BFBD465DF8047B704700BFEC
:101730000C0000207821002080B400AF034B1B6810
:101740001846BD465DF8047B704700BF7821002035
:1017500080B584B000AF7860FFF7EEFFB8607B68BB
:10176000FB60FB68B3F1FF3F05D0094B1B781A46BD
:10177000FB681344FB6000BFFFF7DEFF0246BB6857
:10178000D31AFA689A42F7D800BF1037BD4680BD19
:101790000C00002080B485B000AF78607B6803F057
:1017A0000703FB600C4BDB68BB60BA684FF6FF03B6
:1017B0001340BB60FB681A02BB68134343F0BF636E
:1017C00043F40033BB60044ABB68D36000BF1437E6
:1017D000BD465DF8047B704700ED00E080B400AFCB
:1017E000044BDB681B0A03F007031846BD465DF88F
:1017F000047B704700ED00E080B483B000AF034687
:101800003960FB7197F90730002B0ADB3B68DAB2CD
:101810000C4997F907301201D2B20B4483F8002328
:101820000AE03B68DAB20849FB7903F00F03043B96
:101830001201D2B20B441A7600BF0C37BD465DF8D8
:10184000047B704700E100E000ED00E080B489B067
:1018500000AFF860B9607A60FB6803F00703FB61D2
:10186000FB69C3F10703042B28BF0423BB61FB6999
:101870000433062B02D9FB69033B00E000237B61A4
:101880004FF0FF32BB6902FA03F3DA43BB681A4038
:101890007B699A404FF0FF317B6901FA03F3D9432A
:1018A0007B680B40134318462437BD465DF8047B24
:1018B0007047000080B582B000AF78607B68013B64
:1018C000B3F1807F01D301230FE00A4A7B68013B1B
:1018D00053600F214FF0FF30FFF78EFF054B0022C2
:1018E0009A60044B07221A60002318460837BD4649
:1018F00080BD00BF10E000E080B582B000AF78602E
:101900007868FFF747FF00BF0837BD4680BD80B548
:1019100086B000AF0346B9607A60FB7300237B6139
:10192000FFF75CFF78617A68B9687869FFF78EFF26
:10193000024697F90F3011461846FFF75DFF00BFCA
:101940001837BD4680BD80B582B000AF786078683A
:10195000FFF7B0FF034618460837BD4680BD0000BC
:1019600080B586B000AFF860B960C7E900230123F5
:10197000FB75234B1B7E012B01D102233BE0204B47
:1019800001221A764CF2503000F070F80346FB75D5
:10199000FB7D002B2BD1FB68002B05D13B78194632
:1019A000B86800F017F916E0FB68012B05D13B88F9
:1019B0001946B86800F0EAF80DE0FB68022B05D183
:1019C0003B681946B86800F0BFF804E0D7E9002387
:1019D000B86800F08BF84CF2503000F047F803463E
:1019E000FB75084B1B69074A23F001031361044B85
:1019F00000221A76FB7D18461837BD4680BD00BF11
:101A00007C210020003C024080B483B000AF002362
:101A1000FB710B4B1B69002B0BDA094B094A5A600F
:101A2000074B094A5A60064B1B69002B01DA012358
:101A3000FB71FB7918460C37BD465DF8047B704797
:101A4000003C024023016745AB89EFCD80B400AF75
:101A5000054B1B69044A43F00043136100231846F9
:101A6000BD465DF8047B7047003C024080B584B001
:101A700000AF78600023FB601A4B0022DA61FFF7A9
:101A80005BFEF86010E07B68B3F1FF3F0CD07B6831
:101A9000002B07D0FFF750FE0246FB68D31A7A6886
:101AA0009A4201D2032319E00F4BDB6803F4803321
:101AB000002BE8D10C4BDB6803F00103002B02D0B4
:101AC000094B0122DA60084BDB6803F4F973002B41
:101AD00003D000F0A1F8012300E0002318461037DE
:101AE000BD4680BD7C210020003C024090B484B003
:101AF00000AFF860C7E90023124B1B69114A23F4B9
:101B0000407313610F4B1B690E4A43F4407313611A
:101B10000C4B1B690B4A43F001031361FB683A68E5
:101B20001A60D7E900124FF000034FF000041300D1
:101B30000024FA680432136000BF1037BD4690BC21
:101B4000704700BF003C024080B483B000AF7860B3
:101B500039600D4B1B690C4A23F4407313610A4B27
:101B60001B69094A43F400731361074B1B69064A5A
:101B700043F0010313617B683A681A6000BF0C37B9
:101B8000BD465DF8047B7047003C024080B483B0E2
:101B900000AF78600B467B800D4B1B690C4A23F429
:101BA000407313610A4B1B69094A43F48073136144
:101BB000074B1B69064A43F0010313617B687A886F
:101BC0001A8000BF0C37BD465DF8047B704700BF2C
:101BD000003C024080B483B000AF78600B46FB70DD
:101BE0000C4B1B690B4A23F440731361094B094AE0
:101BF0001B691361074B1B69064A43F0010313611C
:101C00007B68FA781A7000BF0C37BD465DF8047B1C
:101C1000704700BF003C024080B400AF2F4BDB6830
:101C200003F01003002B08D02D4BDB6943F01003A9
:101C30002B4AD361294B1022DA60284BDB6803F072
:101C40002003002B08D0264BDB6943F00803244A0D
:101C5000D361224B2022DA60204BDB6803F0400383
:101C6000002B08D01E4BDB6943F004031C4AD361F0
:101C70001A4B4022DA60194BDB6803F08003002B1B
:101C800008D0174BDB6943F00203154AD361134BAD
:101C90008022DA60114BDB6803F48073002B09D0DB
:101CA0000F4BDB6943F001030D4AD3610B4B4FF43B
:101CB0008072DA60094BDB6803F00203002B08D066
:101CC000074BDB6943F02003054AD361034B022233
:101CD000DA6000BFBD465DF8047B7047003C0240FF
:101CE0007C21002080B584B000AF7860396001238A
:101CF000FB730023BB60314B1B7E012B01D1022300
:101D000058E02E4B01221A764CF25030FFF7AEFE0F
:101D10000346FB73FB7B002B48D13B684FF0FF323F
:101D20001A607B681B68012B15D17B681B69DAB2CE
:101D30007B685B681946104600F044F84CF250305E
:101D4000FFF794FE0346FB731D4B1B691C4A23F0EF
:101D50000403136128E07B689B68BB601CE07B6820
:101D60001B69DBB21946B86800F050F84CF25030ED
:101D7000FFF77CFE0346FB73114B1B69104A23F0EF
:101D8000FA031361FB7B002B03D03B68BA681A602F
:101D90000AE0BB680133BB607B68DA687B689B68DC
:101DA0001344BA689A42DAD300F078F8034B002261
:101DB0001A76FB7B18461037BD4680BD7C2100207B
:101DC000003C024080B483B000AF03463960FB7131
:101DD0000D4B1B690C4A23F4407313610A4B1B69BA
:101DE000094A43F004031361074B1A69FB791B028C
:101DF0001343054A43F48033136100BF0C37BD46DB
:101E00005DF8047B704700BF003C024080B485B0A1
:101E100000AF78600B46FB700023FB60FB78002B63
:101E200002D10023FB6010E0FB78012B03D14FF4BB
:101E30008073FB6009E0FB78022B03D14FF4007341
:101E4000FB6002E04FF44073FB60134B1B69124AC6
:101E500023F440731361104B1A690F49FB68134355
:101E60000B610D4B1B690C4A23F0F80313610A4BFD
:101E70001A697B68DB001343074A43F002031361CE
:101E8000054B1B69044A43F48033136100BF1437C8
:101E9000BD465DF8047B7047003C024080B400AF53
:101EA000204B1B6803F40073002B17D01D4B1B68DD
:101EB0001C4A23F4007313601A4B1B68194A43F43D
:101EC00000631360174B1B68164A23F4006313600A
:101ED000144B1B68134A43F400731360114B1B68C7
:101EE00003F48063002B17D00E4B1B680D4A23F4BC
:101EF000806313600B4B1B680A4A43F480531360E2
:101F0000084B1B68074A23F480531360054B1B687A
:101F1000044A43F48063136000BFBD465DF8047B50
:101F2000704700BF003C024080B489B000AF7860C9
:101F3000396000237B6100233B610023BB610023E8
:101F4000FB6165E10122FB6902FA03F37B613B68F7
:101F50001B687A6913403B613A697B699A4240F099
:101F600054813B685B68022B03D03B685B68122B93
:101F700023D1FB69DA087B68083253F82230BB6151
:101F8000FB6903F007039B000F2202FA03F3DB4314
:101F9000BA691340BB613B681A69FB6903F0070328
:101FA0009B0002FA03F3BA691343BB61FB69DA08C9
:101FB0007B680832B96943F822107B681B68BB61F3
:101FC000FB695B00032202FA03F3DB43BA691340A7
:101FD000BB613B685B6803F00302FB695B0002FACC
:101FE00003F3BA691343BB617B68BA691A603B6843
:101FF0005B68012B0BD03B685B68022B07D03B680A
:102000005B68112B03D03B685B68122B30D17B6877
:102010009B68BB61FB695B00032202FA03F3DB43AD
:10202000BA691340BB613B68DA68FB695B0002FA7E
:1020300003F3BA691343BB617B68BA699A607B6832
:102040005B68BB610122FB6902FA03F3DB43BA69F7
:102050001340BB613B685B681B0903F00102FB692D
:1020600002FA03F3BA691343BB617B68BA695A6029
:102070007B68DB68BB61FB695B00032202FA03F348
:10208000DB43BA691340BB613B689A68FB695B003C
:1020900002FA03F3BA691343BB617B68BA69DA6079
:1020A0003B685B6803F08053002B00F0AE80002398
:1020B000FB605C4B5B6C5B4A43F480435364594B5D
:1020C0005B6C03F48043FB60FB68574AFB699B0829
:1020D000023352F82330BB61FB6903F003039B001A
:1020E0000F2202FA03F3DB43BA691340BB617B683A
:1020F0004E4A934225D07B684D4A93421FD07B685D
:102100004C4A934219D07B684B4A934213D07B6868
:102110004A4A93420DD07B68494A934207D07B6874
:10212000484A934201D106230CE007230AE0052325
:1021300008E0042306E0032304E0022302E0012375
:1021400000E00023FA6902F0030292009340BA69AA
:102150001343BB613449FB699B080233BA6941F8F8
:102160002320394B1B68BB613B69DB43BA691340D1
:10217000BB613B685B6803F48033002B03D0BA6912
:102180003B691343BB61304ABB6913602E4B5B68EC
:10219000BB613B69DB43BA691340BB613B685B6869
:1021A00003F40033002B03D0BA693B691343BB61CE
:1021B000254ABB695360244B9B68BB613B69DB4389
:1021C000BA691340BB613B685B6803F48013002B62
:1021D00003D0BA693B691343BB611B4ABB69936077
:1021E000194BDB68BB613B69DB43BA691340BB61D8
:1021F0003B685B6803F40013002B03D0BA693B69AA
:102200001343BB61104ABB69D360FB690133FB61B7
:10221000FB690F2B7FF696AE00BF2437BD465DF8F5
:10222000047B704700380240003801400000024043
:102230000004024000080240000C0240001002406E
:102240000014024000180240003C014080B487B0F6
:1022500000AF7860396000233B610023FB600023FE
:10226000BB6000237B61C7E001227B6902FA03F3B4
:102270003B613A683B691340FB60FA683B699A42EC
:1022800040F0B780614A7B699B08023352F82330E3
:10229000BB607B6903F003039B000F2202FA03F388
:1022A000BA681340BB607B68594A934225D07B686B
:1022B000584A93421FD07B68574A934219D07B6893
:1022C000564A934213D07B68554A93420DD07B689F
:1022D000544A934207D07B68534A934201D1062364
:1022E0000CE007230AE0052308E0042306E00323AB
:1022F00004E0022302E0012300E000237A6902F0F7
:10230000030292009340BA689A4232D17B6903F08B
:1023100003039B000F2202FA03F3BB603B4A7B6975
:102320009B08023352F82310BB68DA4337487B69B5
:102330009B080A40023340F823203C4B1A68FB6894
:10234000DB433A4913400B60384B5A68FB68DB4368
:10235000364913404B60354B9A68FB68DB43334981
:1023600013408B60314BDA68FB68DB432F49134025
:10237000CB607B681A687B695B00032101FA03F379
:10238000DB431A407B681A607B69DA087B68083295
:1023900053F822107B6903F007039B000F2202FA17
:1023A00003F3DB437A69D20819407B68083243F8AB
:1023B00022107B689A687B695B00032101FA03F3B2
:1023C000DB431A407B689A607B685A6801217B690D
:1023D00001FA03F3DB431A407B685A607B68DA68D2
:1023E0007B695B00032101FA03F3DB431A407B683E
:1023F000DA607B6901337B617B690F2B7FF634AF39
:1024000000BF1C37BD465DF8047B704700380140B3
:10241000000002400004024000080240000C02409C
:10242000001002400014024000180240003C01402D
:1024300080B485B000AF78600B467B807B681A69FA
:102440007B881340002B02D00123FB7301E00023A3
:10245000FB73FB7B18461437BD465DF8047B704761
:1024600080B483B000AF78600B467B8013467B70EE
:102470007B78002B03D07A887B689A6103E07B88A5
:102480001A047B689A6100BF0C37BD465DF8047B77
:10249000704790B58DB000AF78607B681B683B6279
:1024A0003B6AFB617B681B68184603F003FD03462B
:1024B000002B40F0BB837B681B68184603F067FC69
:1024C0000346002B00F0B1837B681B68184603F0BD
:1024D0005EFC034603F00203022B07D17B681B68F6
:1024E0005A697B681B6802F002025A617B681B68AC
:1024F000184603F04CFC034603F40023B3F5002F09
:102500007BD100237B627B681B68184603F052FC7A
:10251000B8626FE0BB6A03F00103002B64D07B68F4
:102520001B687A6AD2B21146184603F077FCB8618C
:10253000BB6903F00103002B0CD07B6A5A01FB69D5
:10254000134403F530631A4601239360796A78686F
:1025500000F0D8FDBB6903F00803002B0CD0796AAA
:10256000786800F0D7FE7B6A5A01FB69134403F5D3
:1025700030631A4608239360BB6903F01003002BF5
:1025800008D07B6A5A01FB69134403F530631A468D
:1025900010239360BB6903F02003002B15D07B68E8
:1025A0001B69012B08D17B6818687B6803F5717380
:1025B0001A46012103F0C2FC7B6A5A01FB691344ED
:1025C00003F530631A4620239360BB6903F400537C
:1025D000002B09D07B6A5A01FB69134403F5306371
:1025E0001A464FF4005393607B6A01337B62BB6AE7
:1025F0005B08BB62BB6A002B8CD17B681B681846EA
:1026000003F0C5FB034603F48023B3F5802F40F0AD
:10261000C4807B681B68184603F0E6FBB8620023A1
:102620007B62B6E0BB6A03F00103002B00F0AB80D5
:102630007B681B687A6AD2B21146184603F00CFC1C
:10264000B861BB6903F00103002B5BD07B6A03F028
:102650000F03012202FA03F37B61FB6903F50063B8
:102660005A6B7B69DB43F96901F5006113404B63E9
:102670007B6A5A01FB69134403F510631A46012370
:1026800093607B681B69012B1BD179687A6A1346BA
:10269000DB009B1A9B000B444833196878687A6A00
:1026A0001346DB009B1A9B00034444331B68194408
:1026B00078687A6A1346DB009B1A9B000344483310
:1026C00019607B6ADBB21946786807F0DCFD7B682D
:1026D0001B69012B16D17B6A002B13D179687A6AAA
:1026E0001346DB009B1A9B000B4450331B68002BE6
:1026F00008D17B6818687B6803F571731A4601215D
:1027000003F01CFCBB6903F00803002B08D07B6AB4
:102710005A01FB69134403F510631A4608239360BA
:10272000BB6903F01003002B08D07B6A5A01FB69D8
:10273000134403F510631A4610239360BB6903F03A
:102740004003002B08D07B6A5A01FB69134403F550
:1027500010631A4640239360BB6903F00203002B09
:1027600008D07B6A5A01FB69134403F510631A46CB
:1027700002239360BB6903F08003002B03D0796AC6
:10278000786800F032FC7B6A01337B62BB6A5B08CD
:10279000BB62BB6A002B7FF445AF7B681B681846A1
:1027A00003F0F5FA034603F00043B3F1004F22D1E2
:1027B000FB6903F500635B68FA6902F5006223F0C8
:1027C000010353607B6893F8F433012B08D17B68D5
:1027D000002283F8F4230021786807F00FFF02E05D
:1027E000786807F0C7FD7B681B685A697B681B68BF
:1027F00002F000425A617B681B68184603F0C7FA72
:10280000034603F40063B3F5006F12D1FB6903F5CF
:1028100000639B6803F00103012B02D1786807F085
:1028200083FD7B681B685A697B681B6802F4006241
:102830005A617B681B68184603F0A9FA034603F047
:102840000063B3F1006F21D17B681B685A697B6814
:102850001B6802F000625A617B6893F8F433002B26
:1028600011D17B68012283F8F4237B681B685B6DC0
:102870009B0803F00F027B68C3F8F82301217868F6
:1028800007F0BCFE02E0786807F04EFD7B681B682D
:10289000184603F07CFA034603F48053B3F5805FD7
:1028A00040F0A780FB6903F500635B68FA6902F5F5
:1028B000006223F0010353607B681B6810211846F7
:1028C00002F0A4FC0023FB6236E0FB6A5A01FB69BC
:1028D000134403F510631A464FF67F339360FB6A87
:1028E0005A01FB69134403F510631B68FA6A51012E
:1028F000FA690A4402F5106223F400131360FB6ABC
:102900005A01FB69134403F530631A464FF67F33CF
:102910009360FB6A5A01FB69134403F530631B683B
:10292000FA6A5101FA690A4402F5306223F400138D
:102930001360FB6A0133FB627B685B68FA6A9A4248
:10294000C3D3FB6903F50063DB69FA6902F5006232
:1029500043F00113D3617B681B6B002B16D0FB691E
:1029600003F50063D3F88430FA6902F5006243F09E
:102970000B03C2F88430FB6903F500635B6CFA69F2
:1029800002F5006243F00B03536415E0FB6903F5A5
:1029900000635B69FA6902F5006243F4005343F097
:1029A0002B035361FB6903F500631B69FA6902F5A8
:1029B000006243F00B031361FB6903F500631B68BE
:1029C000FA6902F5006223F4FE6313607B681868FD
:1029D0007B681B69D9B27B6803F571731A4603F0F3
:1029E000ADFA7B681B685A697B681B6802F48052E9
:1029F0005A617B681B68184603F0C9F9034603F463
:102A00000053B3F5005F24D17B681B68184603F0C0
:102A10005FFA7B681B68184602F01EFC03461A46E4
:102A20007B68DA607B681C6800F006FE01467B6804
:102A3000DB68DBB21A46204602F046FB786807F0F6
:102A40004AFC7B681B685A697B681B6802F4005269
:102A50005A617B681B68184603F099F9034603F036
:102A60001003102B61D17B681B689A697B681B6817
:102A700022F010029A613B6A1B6A3B613B6903F0DA
:102A80000F021346DB009B1A9B0003F5FC737A6868
:102A900013440433FB603B695B0C03F00F03022B10
:102AA00024D13A6947F6F0731340002B35D0FB6808
:102AB000D9683B691B099BB2C3F30A039BB21A4650
:102AC000386A03F041F8FB68DA683B691B09C3F315
:102AD0000A031A44FB68DA60FB689A693B691B09C0
:102AE000C3F30A031A44FB689A6116E03B695B0C66
:102AF00003F00F03062B10D17B6803F571730822D6
:102B00001946386A03F020F8FB689A693B691B098B
:102B1000C3F30A031A44FB689A617B681B689A69CD
:102B20007B681B6842F010029A617B681B6818463C
:102B300003F02DF9034603F00803082B0AD1786847
:102B400007F0BBFB7B681B685A697B681B6802F057
:102B500008025A617B681B68184603F018F903469F
:102B600003F48013B3F5801F0FD100237B627B6ACF
:102B7000DBB21946786807F01DFC7B681B685A6950
:102B80007B681B6802F480125A617B681B681846D8
:102B900003F0FDF8034603F40013B3F5001F0FD153
:102BA00000237B627B6ADBB21946786807F0F0FB92
:102BB0007B681B685A697B681B6802F400125A61C3
:102BC0007B681B68184603F0E2F8034603F0804375
:102BD000B3F1804F0AD1786807F0FEFB7B681B6871
:102BE0005A697B681B6802F080425A617B681B68E7
:102BF000184603F0CCF8034603F00403042B15D168
:102C00007B681B685B683B613B6903F00403002B36
:102C100002D0786807F0EEFB7B681B6859687B6818
:102C20001B683A690A435A6000E000BF3437BD466A
:102C300090BD80B582B000AF78600B46FB707B68BA
:102C400093F8BC33012B01D1022313E07B680122EE
:102C500083F8BC237B68FA7883F838207B681B688C
:102C6000FA781146184603F06CF87B68002283F866
:102C7000BC23002318460837BD4680BD80B584B00C
:102C800000AF7860084611461A460346FB700B46B3
:102C90003B801346BB700023FB7297F90330002B77
:102CA0000FDAFB7803F00F021346DB009B1A9B0040
:102CB00038337A6813440433FB60FB6801225A708E
:102CC0000FE0FB7803F00F021346DB009B1A9B001A
:102CD00003F5FC737A6813440433FB60FB6800223D
:102CE0005A70FB7803F00F03DAB2FB681A703A8867
:102CF000FB689A60FB68BA78DA70FB685B78002B37
:102D000004D0FB681B789AB2FB68DA80BB78022B90
:102D100002D1FB6800221A717B6893F8BC33012B47
:102D200001D102230EE07B68012283F8BC237B687B
:102D30001B68F968184602F0B4FA7B68002283F831
:102D4000BC23FB7A18461037BD4680BD80B586B0DF
:102D500000AFF8607A603B600B46FB72FB7A03F0D1
:102D60000F021346DB009B1A9B0003F5FC73FA6805
:102D7000134404337B617B697A68DA607B693A6863
:102D80005A617B6900229A617B6900225A70FB7A42
:102D900003F00F03DAB27B691A70FB681B69012B21
:102DA00002D17A687B691A61FB7A03F00F03002B6A
:102DB00009D1FB681868FB681B69DBB21A467969A0
:102DC00002F03AFD08E0FB681868FB681B69DBB29B
:102DD0001A46796902F0ECFA002318461837BD4606
:102DE00080BD80B586B000AFF8607A603B600B466E
:102DF000FB72FB7A03F00F021346DB009B1A9B0069
:102E00003833FA68134404337B617B697A68DA608B
:102E10007B693A685A617B6900229A617B69012269
:102E20005A70FB7A03F00F03DAB27B691A70FB6801
:102E30001B69012B02D17A687B691A61FB7A03F066
:102E40000F03002B09D1FB681868FB681B69DBB214
:102E50001A46796902F0F0FC08E0FB681868FB6824
:102E60001B69DBB21A46796902F0A2FA0023184600
:102E70001837BD4680BD80B584B000AF78600B4682
:102E8000FB70FB7803F00F027B685B689A4201D904
:102E9000012350E097F90330002B0FDAFB7803F0A1
:102EA0000F021346DB009B1A9B0038337A681344E9
:102EB0000433FB60FB6801225A700DE0FA78134678
:102EC000DB009B1A9B0003F5FC737A681344043300
:102ED000FB60FB6800225A70FB6801229A70FB7845
:102EE00003F00F03DAB2FB681A707B6893F8BC3307
:102EF000012B01D102231EE07B68012283F8BC2351
:102F00007B681B68F968184602F047FEFB7803F0FF
:102F10000F03002B0AD17B6818687B681B69D9B244
:102F20007B6803F571731A4603F008F87B6800228A
:102F300083F8BC23002318461037BD4680BD80B5FA
:102F400084B000AF78600B46FB70FB7803F00F0293
:102F50007B685B689A4201D9012342E097F903300C
:102F6000002B0FDAFB7803F00F021346DB009B1AED
:102F70009B0038337A6813440433FB60FB680122FA
:102F80005A700FE0FB7803F00F021346DB009B1A28
:102F90009B0003F5FC737A6813440433FB60FB6801
:102FA00000225A70FB6800229A70FB7803F00F032E
:102FB000DAB2FB681A707B6893F8BC33012B01D13D
:102FC00002230EE07B68012283F8BC237B681B6828
:102FD000F968184602F04FFE7B68002283F8BC2394
:102FE000002318461037BD4680BD80B58AB002AFB9
:102FF000786039607B681B687B617B693B613A68FC
:103000001346DB009B1A9B0038337A681344043361
:10301000FB60FB689A69FB685B699A4201D90123EE
:103020006CE0FB685A69FB689B69D31AFB61FB681B
:103030009B68FA699A4202D9FB689B68FB61FB694D
:1030400003339B08BB612BE0FB685A69FB689B69F3
:10305000D31AFB61FB689B68FA699A4202D9FB6844
:103060009B68FB61FB6903339B08BB61FB68D96804
:103070003B68DAB2FB6998B27B681B69DBB20093EC
:103080000346786902F02BFDFB68DA68FB691A4495
:10309000FB68DA60FB689A69FB691A44FB689A610D
:1030A0003B685A013B69134403F510639B699BB26B
:1030B000BA699A4209D8FB689A69FB685B699A42C7
:1030C00003D2FB685B69002BBED1FB685A69FB68C1
:1030D0009B699A4211D83B6803F00F03012202FA60
:1030E00003F3BB603B6903F500635A6BBB68DB43CA
:1030F000396901F5006113404B63002318462037FE
:10310000BD4680BD80B586B000AF786039607B6811
:103110001B687B617B693B617B693C3304331B68C3
:10312000FB603B685A013B69134403F530639B68BD
:10313000BB607B681B69012B40F0B380BB6803F068
:103140000803002B28D0FB68704A93420ED9BB6855
:1031500003F40043002B09D03B685A013B69134438
:1031600003F530631A464FF400439360786807F024
:103170005DF87B6818687B6803F571731A46012156
:1031800002F0DCFE3B685A013B69134403F53063EF
:103190001A4608239360B3E0BB6803F02003002BBA
:1031A00009D03B685A013B69134403F530631A4662
:1031B00020239360A4E0BB6803F02803002B40F0B9
:1031C0009F80FB68514A93420FD9BB6803F40043C8
:1031D000002B0AD03B685A013B69134403F5306366
:1031E0001A464FF4004393608AE079683A681346C0
:1031F000DB009B1A9B000B4403F501731A683B68C4
:1032000059013B690B4403F530631B69C3F3120397
:10321000D11A78683A681346DB009B1A9B00034476
:1032200003F50573196079683A681346DB009B1A49
:103230009B000B4403F50273196878683A681346DB
:10324000DB009B1A9B00034403F501731B681944C0
:1032500078683A681346DB009B1A9B00034403F529
:10326000027319603B68DBB21946786806F0F0FF1C
:103270003B68002B44D179683A681346DB009B1AFF
:103280009B000B4403F504731B68002B38D17B684B
:1032900018687B6803F571731A46012102F04EFE2F
:1032A0002EE0FB681A4A934224D1BB6803F4004322
:1032B000002B0AD03B685A013B69134403F5306385
:1032C0001A464FF4004393601AE0BB6803F02003F2
:1032D000002B08D03B685A013B69134403F5306367
:1032E0001A46202393603B68DBB21946786806F0E3
:1032F000AFFF05E03B68DBB21946786806F0A8FF2F
:10330000002318461837BD4680BD00BF0A30544F11
:103310000A31544F80B586B000AF786039607B6861
:103320001B687B617B693B617B693C3304331B68B1
:10333000FB603B685A013B69134403F530639B68AB
:10334000BB607B681B69012B13D1FB681F4A93424A
:1033500022D9BB6803F40043002B1DD03B685A01FF
:103360003B69134403F530631A464FF400439360FE
:1033700012E0FB68164A93420ED1BB6803F4004387
:10338000002B09D03B685A013B69134403F53063B5
:103390001A464FF400439360786806F047FFFB68D5
:1033A0000A4A93420CD97B681B69012B08D17B68C0
:1033B00018687B6803F571731A46012102F0BEFD9F
:1033C000002318461837BD4680BD00BF0A30544F51
:1033D0000A31544F80B582B000AF00237B600023D8
:1033E0003B60204B1B6C1F4A43F0805313641D4B02
:1033F0001B6C03F080533B603B681B4B01221A603F
:10340000FEF79AF9786009E0FEF796F902467B68C4
:10341000D31AB3F57A7F01D903231FE0134B5B68FE
:1034200003F48033B3F5803FEED1114B01221A60D3
:10343000FEF782F9786009E0FEF77EF902467B68C4
:10344000D31AB3F57A7F01D9032307E0074B5B68F2
:1034500003F40033B3F5003FEED1002318460837DC
:10346000BD4680BD0038024040000E420070004062
:1034700044000E4280B584B000AF786039607B684C
:10348000002B01D10123CAE0674B1B6803F00F0337
:103490003A689A420CD9644B3A68D2B21A70624BBD
:1034A0001B6803F00F033A689A4201D00123B6E08B
:1034B0007B681B6803F00203002B20D07B681B682D
:1034C00003F00403002B05D0584B9B68574A43F484
:1034D000E05393607B681B6803F00803002B05D062
:1034E000524B9B68514A43F4604393604F4B9B6837
:1034F00023F0F0027B689B684C4913438B607B6828
:103500001B6803F00103002B44D07B685B68012B30
:1035100007D1464B1B6803F40033002B19D101235C
:103520007DE07B685B68022B03D07B685B68032BC4
:1035300007D13E4B1B6803F00073002B09D1012318
:103540006DE03A4B1B6803F00203002B01D101230D
:1035500065E0364B9B6823F003027B685B68334968
:1035600013438B60FEF7E8F8F8600AE0FEF7E4F832
:103570000246FB68D31A41F28832934201D90323F1
:103580004DE02A4B9B6803F00C027B685B689B0054
:103590009A42EBD1244B1B6803F00F033A689A421E
:1035A0000CD2214B3A68D2B21A701F4B1B6803F041
:1035B0000F033A689A4201D0012330E07B681B6810
:1035C00003F00403002B08D0184B9B6823F4E0524F
:1035D0007B68DB68154913438B607B681B6803F0CD
:1035E0000803002B09D0114B9B6823F460427B68D1
:1035F0001B69DB000D4913438B6000F07BFB014628
:103600000A4B9B681B0903F00F03094AD35C21FA9C
:1036100003F3084A13600020FEF74AF80023184617
:103620001037BD4680BD00BF003C0240003802405C
:10363000DCBA00081400002080B400AF034B1B6804
:103640001846BD465DF8047B704700BF140000209B
:1036500080B500AFFFF7F0FF0146054B9B689B0A62
:1036600003F00703034AD35C21FA03F3184680BD35
:1036700000380240ECBA000880B500AFFFF7DCFF6D
:103680000146054B9B685B0B03F00703034AD35CC1
:1036900021FA03F3184680BD00380240ECBA000856
:1036A00080B58CB000AF786000237B6200233B6262
:1036B0000023FB610023BB6100237B6100233B618E
:1036C0000023FB600023FB620023BB627B681B6856
:1036D00003F00103002B10D06F4BD3F88C3023F094
:1036E000C0627B689B6B6C491343C1F88C307B686C
:1036F0009B6B002B01D10123FB627B681B6803F0ED
:103700000203002B10D0644BD3F88C3023F0C0524E
:103710007B68DB6B60491343C1F88C307B68DB6BE3
:10372000002B01D10123FB627B681B6803F00403BB
:10373000002B17D0584BD3F88C3023F440127B6801
:103740001B6B55491343C1F88C307B681B6BB3F579
:10375000801F01D10123FB627B681B6B002B01D111
:103760000123BB627B681B6803F00803002B17D0A2
:10377000494BD3F88C3023F440027B685B6B46499D
:103780001343C1F88C307B685B6BB3F5800F01D1BC
:103790000123FB627B685B6B002B01D10123BB62C1
:1037A0007B681B6803F02003002B00F08A80002355
:1037B000BB60394B1B6C384A43F080531364364B63
:1037C0001B6C03F08053BB60BB68344B1B68334AEF
:1037D00043F480731360FDF7AFFF786208E0FDF7F4
:1037E000ABFF02467B6AD31A022B01D9032378E28E
:1037F0002A4B1B6803F48073002BF0D0264B1B6F01
:1038000003F440733B623B6A002B2FD07B681B6C38
:1038100003F440733A6A9A4228D01F4B1B6F23F47B
:1038200040733B621E4B01221A601D4B00221A603E
:10383000194A3B6A1367184B1B6F03F00103012BF6
:1038400014D1FDF779FF78620AE0FDF775FF0246B3
:103850007B6AD31A41F28832934201D9032340E2B2
:103860000D4B1B6F03F00203002BEED07B681B6C2B
:1038700003F44073B3F5407F14D1074B9B6823F4E6
:10388000F8127B681B6C23F0704323F440730249E9
:1038900013438B600CE000BF003802400070004012
:1038A000400E47424A4B9B68494A23F4F813936001
:1038B000474B1A6F7B681B6CC3F30B0344491343DC
:1038C0000B677B681B6803F01003002B04D07B6838
:1038D00093F858203F4B1A607B681B6803F0800305
:1038E000002B0AD03A4BD3F8943023F440027B6883
:1038F000DB6C37491343C1F894307B681B6803F0D5
:103900004003002B0AD0324BD3F8943023F080626E
:103910007B689B6C2E491343C1F894307B681B680D
:1039200003F48073002B11D0294BD3F8943023F08B
:1039300000627B685B6D26491343C1F894307B6855
:103940005B6DB3F1006F01D10123BB627B681B6823
:1039500003F40073002B0AD01D4BD3F8943023F0EE
:1039600080527B685B6C1A491343C1F894307B68C2
:103970001B6803F48063002B11D0154BD3F89430EF
:1039800023F000527B681B6D11491343C1F894303A
:103990007B681B6DB3F1005F01D10123FB62FB6A01
:1039A000012B05D07B681B68B3F5006F40F0FF80EA
:1039B000094B00221A60FDF7BFFE78620EE0FDF7AA
:1039C000BBFE02467B6AD31A022B07D9032388E188
:1039D00000380240E0114742680047427E4B1B68B6
:1039E00003F00063002BEAD17B681B6803F001033E
:1039F000002B03D07B689B6B002B09D07B681B6876
:103A000003F00203002B28D07B68DB6B002B24D152
:103A1000714BD3F884301B0C03F0030301335B00BC
:103A2000FB616D4BD3F884301B0E03F00F03BB61B9
:103A30007B685A687B689B689B011A43FB695B083B
:103A4000013B1B041A43BB691B061A437B685B6975
:103A50001B0761491343C1F884307B681B6803F07E
:103A60000403002B04D07B681B6BB3F5801F0AD0C6
:103A70007B681B6803F00803002B35D07B685B6B09
:103A8000B3F5800F30D1544BD3F884301B0C03F0C6
:103A9000030301335B00FB614F4BD3F884301B0FF2
:103AA00003F007037B617B685A687B689B689B0116
:103AB0001A43FB695B08013B1B041A437B681B69C3
:103AC0001B061A437B691B0743491343C1F8843023
:103AD000414BD3F88C3023F01F027B689B6A013B7B
:103AE0003D491343C1F88C307B681B6803F4806345
:103AF000002B29D07B681B6DB3F1005F24D1364BBE
:103B0000D3F884301B0C03F0030301335B00BB616B
:103B1000314BD3F884301B0F03F007037B617B68C4
:103B20005A687B689B689B011A437B68DB685B086B
:103B3000013B1B041A43BB691B061A437B691B0725
:103B400025491343C1F884307B681B6803F4006384
:103B5000002B16D07B685A687B689B689B011A43D0
:103B60007B68DB685B08013B1B041A437B681B69AD
:103B70001B061A437B685B691B0717491343C1F88F
:103B80008430164B01221A60FDF7D6FD786208E0FA
:103B9000FDF7D2FD02467B6AD31A022B01D903231B
:103BA0009FE00D4B1B6803F00063002BF0D0BB6A55
:103BB000012B40F095800A4B00221A60FDF7BCFDF6
:103BC00078620FE0FDF7B8FD02467B6AD31A022B3C
:103BD00008D9032385E000BF00380240680047424F
:103BE00070004742414B1B6803F00053B3F1005F84
:103BF000E8D07B681B6803F00403002B03D07B68CC
:103C00001B6B002B09D07B681B6803F00803002B9B
:103C10002BD07B685B6B002B27D1344BD3F88830DB
:103C20001B0C03F0030301335B003B617B689A6963
:103C30007B68DB699B011A433B695B08013B1B0402
:103C40001A437B685B6A1B0628491343C1F8883016
:103C5000264BD3F88C3023F4F8527B68DB6A013BA7
:103C60001B0222491343C1F88C307B681B6803F4A4
:103C70008073002B1DD07B685B6DB3F1006F18D192
:103C80001A4BD3F888301B0E03F00F03FB607B68E0
:103C90009A697B68DB699B011A437B681B6A5B0836
:103CA000013B1B041A43FB681B0610491343C1F870
:103CB00088300F4B01221A60FDF73EFD786208E064
:103CC000FDF73AFD02467B6AD31A022B01D9032382
:103CD00007E0064B1B6803F00053B3F1005FEFD120
:103CE000002318463037BD4680BD00BF0038024073
:103CF00070004742F0B587B000AF0023FB6000239F
:103D00007B610023BB6000237B6000233B619F4BF2
:103D10009B6803F00C030C2B00F2308101A252F8D7
:103D200023F000BF593D00087D3F00087D3F00089B
:103D30007D3F00085F3D00087D3F00087D3F000893
:103D40007D3F0008653D00087D3F00087D3F00087D
:103D50007D3F0008733E00088D4B3B6111E18D4BA8
:103D60003B610EE1894B5B6803F03F03FB60874BCF
:103D70005B6803F48003002B23D0844B5B689B09B2
:103D80004FF0000440F2FF114FF0000203EA01057A
:103D900004EA02067F4A02FB06F1002202FB05F25A
:103DA0000A447C49A5FB010153181946FB684FF0F2
:103DB00000041A462346FCF77BFA03460C467B6157
:103DC00049E0724B5B689B094FF0000440F2FF1121
:103DD0004FF0000203EA010504EA020629463246D2
:103DE0004FF000034FF00004540144EAD1644B014A
:103DF00019462246491B62EB06024FF000034FF0C2
:103E00000004940144EA91648B015B1A64EB0204A0
:103E10004FF000014FF00002E20042EA5372D90075
:103E20000B4614465B1944EB06044FF000014FF0BB
:103E30000002A20242EA935299020B461446184627
:103E40002146FB684FF000041A462346FCF730FA7F
:103E500003460C467B614D4B5B681B0C03F0030370
:103E600001335B00BB607A69BB68B2FBF3F33B6173
:103E700087E0464B5B6803F03F03FB60434B5B68A6
:103E800003F48003002B23D0404B5B689B094FF069
:103E9000000440F2FF114FF0000203EA010504EABA
:103EA00002063C4A02FB06F1002202FB05F20A442C
:103EB0003849A5FB010153181946FB684FF000046F
:103EC0001A462346FCF7F4F903460C467B6149E0A9
:103ED0002E4B5B689B094FF0000440F2FF114FF03E
:103EE000000203EA010504EA0206294632464FF0C1
:103EF00000034FF00004540144EAD1644B01194619
:103F00002246491B62EB06024FF000034FF000040B
:103F1000940144EA91648B015B1A64EB02044FF054
:103F200000014FF00002E20042EA5372D9000B4652
:103F300014465B1944EB06044FF000014FF00002F9
:103F4000A20242EA935299020B46144618462146B1
:103F5000FB684FF000041A462346FCF7A9F9034614
:103F60000C467B61094B5B681B0F03F007037B600A
:103F70007A697B68B2FBF3F33B6102E0044B3B617F
:103F800000BF3B6918461C37BD46F0BD00380240F3
:103F90000024F400001BB70080B586B000AF786045
:103FA00000233B617B681B6803F00103002B00F0DA
:103FB0008380954B9B6803F00C03042B19D0924B24
:103FC0009B6803F00C03082B06D18F4B5B6803F44E
:103FD0008003B3F5800F0CD08B4B9B6803F00C0370
:103FE0000C2B12D1884B5B6803F48003B3F5800F70
:103FF0000BD1854B1B6803F40033002B5BD07B682F
:104000005B68002B57D1012316E27B685B68B3F530
:10401000803F06D17C4B1B687B4A43F4803313609E
:104020001DE07B685B68B3F5A02F0CD1764B1B6855
:10403000754A43F480231360734B1B68724A43F440
:10404000803313600BE0704B1B686F4A23F480339E
:1040500013606D4B1B686C4A23F4802313607B68EC
:104060005B68002B13D0FDF767FB386108E0FDF7B4
:1040700063FB02463B69D31A642B01D90323DBE1BE
:10408000614B1B6803F40033002BF0D014E0FDF704
:1040900053FB386108E0FDF74FFB02463B69D31A3A
:1040A000642B01D90323C7E1574B1B6803F400338A
:1040B000002BF0D100E000BF7B681B6803F0020317
:1040C000002B6FD0504B9B6803F00C03002B17D0D4
:1040D0004D4B9B6803F00C03082B05D14A4B5B68E2
:1040E00003F48003002B0BD0474B9B6803F00C03B9
:1040F0000C2B1CD1444B5B6803F48003002B16D1BE
:10410000414B1B6803F00203002B05D07B68DB6882
:10411000012B01D001238FE13B4B1B6823F0F802F8
:104120007B681B69DB00384913430B603AE07B680E
:10413000DB68002B20D0354B01221A60FDF7FCFA1A
:10414000386108E0FDF7F8FA02463B69D31A022B02
:1041500001D9032370E12C4B1B6803F00203002BF1
:10416000F0D0294B1B6823F0F8027B681B69DB0049
:10417000254913430B6015E0244B00221A60FDF71C
:10418000DBFA386108E0FDF7D7FA02463B69D31A3B
:10419000022B01D903234FE11B4B1B6803F00203E1
:1041A000002BF0D17B681B6803F00803002B37D08D
:1041B0007B685B69002B16D0154B01221A60FDF756
:1041C000BBFA386108E0FDF7B7FA02463B69D31A3B
:1041D000022B01D903232FE10B4B5B6F03F002038A
:1041E000002BF0D01CE00A4B00221A60FDF7A4FA65
:1041F00038610FE0FDF7A0FA02463B69D31A022BA3
:1042000008D9032318E100BF0038024000004742EC
:10421000800E47428A4B5B6F03F00203002BE9D10B
:104220007B681B6803F00403002B00F097800023D9
:10423000FB75834B1B6C03F08053002B0FD10023C5
:10424000FB607F4B1B6C7E4A43F0805313647C4BB6
:104250001B6C03F08053FB60FB680123FB75794BFB
:104260001B6803F48073002B18D1764B1B68754ACA
:1042700043F480731360FDF75FFA386108E0FDF7DF
:104280005BFA02463B69D31A022B01D90323D3E020
:104290006C4B1B6803F48073002BF0D07B689B6829
:1042A000012B06D1664B1B6F654A43F00103136770
:1042B0001CE07B689B68052B0CD1614B1B6F604A2F
:1042C00043F0040313675E4B1B6F5D4A43F0010329
:1042D00013670BE05A4B1B6F594A23F00103136716
:1042E000574B1B6F564A23F0040313677B689B6888
:1042F000002B15D0FDF720FA38610AE0FDF71CFA13
:1043000002463B69D31A41F28832934201D9032312
:1043100092E04B4B1B6F03F00203002BEED014E036
:10432000FDF70AFA38610AE0FDF706FA02463B6932
:10433000D31A41F28832934201D903237CE0404BE7
:104340001B6F03F00203002BEED1FB7D012B05D187
:104350003B4B1B6C3A4A23F0805313647B689B6988
:10436000002B68D0364B9B6803F00C03082B60D001
:104370007B689B69022B45D1334B00221A60FDF705
:10438000DBF9386108E0FDF7D7F902463B69D31A3B
:10439000022B01D903234FE0294B1B6803F0007364
:1043A000002BF0D17B68DA697B681B6A1A437B6853
:1043B0005B6A9B011A437B689B6A5B08013B1B0499
:1043C0001A437B68DB6A1B061A437B681B6B1B075F
:1043D0001B4913434B601C4B01221A60FDF7ACF9DB
:1043E000386108E0FDF7A8F902463B69D31A022BB1
:1043F00001D9032320E0124B1B6803F00073002B4C
:10440000F0D018E0104B00221A60FDF795F93861E2
:1044100008E0FDF791F902463B69D31A022B01D956
:10442000032309E0064B1B6803F00073002BF0D157
:1044300001E0012300E0002318461837BD4680BD87
:1044400000380240007000406000474280B582B0F2
:1044500000AF78607B68002B01D1012356E07B68B8
:1044600000229A627B6893F85130DBB2002B06D1B0
:104470007B68002283F85020786800F073F87B682E
:10448000022283F851207B681B681A687B681B68CE
:1044900022F040021A607B685A687B689B681A4366
:1044A0007B68DB681A437B681B691A437B685B691E
:1044B0001A437B689B6903F400731A437B68DB69CA
:1044C0001A437B681B6A42EA03017B689A6A7B682D
:1044D0001B680A431A607B689B691B0C03F004018C
:1044E0007B685A6A7B681B680A435A607B681B6852
:1044F000DA697B681B6822F40062DA617B6800225B
:104500005A657B68012283F851200023184608373A
:10451000BD4680BD80B582B000AF78607B68002B5F
:1045200001D101231AE07B68022283F851207B68C5
:104530001B681A687B681B6822F040021A60786862
:10454000FCF7B8FD7B6800225A657B68002283F87F
:1045500051207B68002283F850200023184608373A
:10456000BD4680BD80B483B000AF786000BF0C371B
:10457000BD465DF8047B704780B58CB000AFF86035
:10458000B9607A607B800123FB62002387F82B30BF
:10459000FB6893F85030012B01D102238AE1FB68BC
:1045A000012283F85020FDF7C7F87862FB6893F882
:1045B000513087F82330FB685B68FB617B887B8325
:1045C00097F82330012B0FD0FB69B3F5827F07D119
:1045D000FB689B68002B03D197F82330042B03D092
:1045E000022387F82B305BE1BB68002B05D07B688A
:1045F000002B02D07B88002B03D1012387F82B30BE
:104600004EE1FB6893F85130DBB2042B03D0FB681A
:10461000052283F85120FB6800225A65FB687A68FE
:104620009A63FB687A88DA87FB687A889A87FB68DE
:10463000BA681A63FB687A88DA86FB687A889A8691
:10464000FB6800221A64FB6800225A64FB681B683E
:104650001B6803F04003402B07D0FB681B681A68F7
:10466000FB681B6842F040021A60FB68DB68B3F528
:10467000006F78D1FB685B68002B02D07B8B012B2D
:1046800066D1FB681B6B1A88FB681B68DA60FB68E5
:104690001B6B9A1CFB681A63FB68DB8E9BB2013BA9
:1046A0009AB2FB68DA8653E0FB681B689B6803F0EC
:1046B0000203022B1BD1FB68DB8E9BB2002B16D0B2
:1046C000FB6A012B13D1FB681B6B1A88FB681B6804
:1046D000DA60FB681B6B9A1CFB681A63FB68DB8E55
:1046E0009BB2013B9AB2FB68DA860023FB62FB684F
:1046F0001B689B6803F00103012B19D1FB68DB8F5A
:104700009BB2002B14D0FB681B68DA68FB689B6BBC
:1047100092B21A80FB689B6B9A1CFB689A63FB68D9
:10472000DB8F9BB2013B9AB2FB68DA870123FB6205
:10473000FDF702F802467B6AD31ABA6B9A4207D891
:10474000BB6BB3F1FF3F03D0032387F82B30A7E007
:10475000FB68DB8E9BB2002BA6D1FB68DB8F9BB284
:10476000002BA1D17CE0FB685B68002B02D07B8B27
:10477000012B6BD1FB681A6BFB681B680C3312783A
:104780001A70FB681B6B5A1CFB681A63FB68DB8E94
:104790009BB2013B9AB2FB68DA8657E0FB681B6864
:1047A0009B6803F00203022B1CD1FB68DB8E9BB2DB
:1047B000002B17D0FB6A012B14D1FB681A6BFB6826
:1047C0001B680C3312781A70FB681B6B5A1CFB6851
:1047D0001A63FB68DB8E9BB2013B9AB2FB68DA86F8
:1047E0000023FB62FB681B689B6803F00103012B3D
:1047F00019D1FB68DB8F9BB2002B14D0FB681B68C0
:10480000DA68FB689B6BD2B21A70FB689B6B5A1C10
:10481000FB689A63FB68DB8F9BB2013B9AB2FB6833
:10482000DA870123FB62FCF787FF02467B6AD31A13
:10483000BA6B9A4203D8BB6BB3F1FF3F02D1BB6B9B
:10484000002B03D1032387F82B3029E0FB68DB8E94
:104850009BB2002BA2D1FB68DB8F9BB2002B9DD1BA
:104860007A6AB96BF86800F0A1F80346002B06D00D
:10487000012387F82B30FB6820225A6510E0FB6883
:104880009B68002B0BD100237B61FB681B68DB68F6
:104890007B61FB681B689B687B617B6900E000BFF4
:1048A000FB68012283F85120FB68002283F8502026
:1048B00097F82B3018463037BD4680BD80B483B0A2
:1048C00000AF78607B6893F85130DBB218460C3744
:1048D000BD465DF8047B704780B584B000AFF860DA
:1048E000B9603B601346FB714CE03B68B3F1FF3F9E
:1048F00048D0FCF721FF0246BB69D31A3A689A42B6
:1049000002D93B68002B3DD1FB681B685A68FB68E5
:104910001B6822F0E0025A60FB685B68B3F5827F97
:1049200011D1FB689B68B3F5004F04D0FB689B680E
:10493000B3F5806F07D1FB681B681A68FB681B68BA
:1049400022F040021A60FB689B6AB3F5005F0FD14A
:10495000FB681B681A68FB681B6822F400521A6027
:10496000FB681B681A68FB681B6842F400521A60F7
:10497000FB68012283F85120FB68002283F8502055
:1049800003230FE0FB681B689A68BB681340BA6892
:104990009A420CBF01230023DBB21A46FB799A42EC
:1049A000A3D1002318461037BD4680BD80B588B01E
:1049B00002AFF860B9607A601B4B1B681B4AA2FB10
:1049C00003235B0D4FF47A7202FB03F37B61FB68F8
:1049D0005B68B3F5827F12D17B680093BB680022CD
:1049E0008021F868FFF778FF0346002B16D0FB689C
:1049F0005B6D43F02002FB685A6503230FE07B697F
:104A0000002B0AD07B69013B7B61FB681B689B68BC
:104A100003F08003802BF2D000E000BF0023184693
:104A20001837BD4680BD00BF14000020819F5E1670
:104A300080B582B000AF78607B68002B01D1012384
:104A40003FE07B6893F83930DBB2002B06D17B68FE
:104A5000002283F838207868FCF7C0FD7B682422A8
:104A600083F839207B681B68DA687B681B6822F44E
:104A70000052DA60786800F00BF97B681B681A69ED
:104A80007B681B6822F490421A617B681B685A6934
:104A90007B681B6822F02A025A617B681B68DA680F
:104AA0007B681B6842F40052DA607B680022DA639C
:104AB0007B68202283F839207B68202283F83A2003
:104AC000002318460837BD4680BD80B588B002AFC8
:104AD000F860B9603B601346FB8000237B61FB6894
:104AE00093F83930DBB2202B40F08380BB68002B79
:104AF00002D0FB88002B01D101237BE0FB6893F8F7
:104B00003830012B01D1022374E0FB68012283F8C5
:104B10003820FB680022DA63FB68212283F8392001
:104B2000FCF70AFE7861FB68FA889A84FB68FA88C9
:104B3000DA8442E0FB68DB8C9BB2013B9AB2FB68F3
:104B4000DA84FB689B68B3F5805F22D13B680093F1
:104B50007B6900228021F86800F050F80346002BA2
:104B600001D0032346E0BB683B613B691B881A46C2
:104B7000FB681B68C2F308025A60FB681B69002BC4
:104B800003D1BB680233BB6017E0BB680133BB6075
:104B900013E03B6800937B6900228021F86800F0F5
:104BA0002DF80346002B01D0032323E0BB685A1CD9
:104BB000BA601A78FB681B685A60FB68DB8C9BB292
:104BC000002BB7D13B6800937B6900224021F86835
:104BD00000F014F80346002B01D003230AE0FB6821
:104BE000202283F83920FB68002283F83820002334
:104BF00000E0022318461837BD4680BD80B584B05A
:104C000000AFF860B9603B601346FB712CE0BB69F4
:104C1000B3F1FF3F28D0BB69002B07D0FCF78CFD18
:104C200002463B68D31ABA699A421DD2FB681B68D8
:104C3000DA68FB681B6822F4D072DA60FB681B68D4
:104C40005A69FB681B6822F001025A61FB68202246
:104C500083F83920FB68202283F83A20FB68002281
:104C600083F8382003230FE0FB681B681A68BB68D1
:104C70001340BA689A420CBF01230023DBB21A46E4
:104C8000FB799A42C3D0002318461037BD4680BD39
:104C9000B0B584B000AF78600023FB607B681B6810
:104CA0001B69FB60FB6823F44053FB607B68DB6897
:104CB000FA681343FB607B681B68FA681A617B68BB
:104CC0001B68DB68FB60FB6823F4164323F00C03CE
:104CD000FB607B689A687B681B691A437B685B6929
:104CE0001A437B68DB691343FA681343FB607B68F4
:104CF0001B68FA68DA607B681B685B69FB60FB68AD
:104D000023F44073FB607B689B69FA681343FB6084
:104D10007B681B68FA685A617B68DB69B3F5004FF2
:104D200040F0E4807B681B68AB4A934204D07B6808
:104D30001B68AA4A93426CD1FEF79EFC02461346BA
:104D40009B0013449A001A447B685B685B00B2FBCB
:104D5000F3F3A34AA2FB03235B091C01FEF78CFCBF
:104D6000024613469B0013449A001A447B685B6812
:104D70005B00B2FBF3F5FEF77FFC024613469B0097
:104D800013449A001A447B685B685B00B2FBF3F340
:104D9000934AA2FB03235B09642202FB03F3EB1A91
:104DA000DB0032338E4AA2FB03235B095B0003F472
:104DB000F8731C44FEF760FC024613469B00134444
:104DC0009A001A447B685B685B00B2FBF3F5FEF760
:104DD00053FC024613469B0013449A001A447B6816
:104DE0005B685B00B2FBF3F37D4AA2FB03235B0924
:104DF000642202FB03F3EB1ADB003233784AA2FB96
:104E000003235B0903F007027B681B6822449A6056
:104E100054E1FEF71DFC024613469B0013449A0022
:104E20001A447B685B685B00B2FBF3F36C4AA2FB3D
:104E300003235B091C01FEF70BFC024613469B0093
:104E400013449A001A447B685B685B00B2FBF3F57D
:104E5000FEF7FEFB024613469B0013449A001A44D9
:104E60007B685B685B00B2FBF3F35D4AA2FB032344
:104E70005B09642202FB03F3EB1ADB003233584A6E
:104E8000A2FB03235B095B0003F4F8731C44FEF7E9
:104E9000DFFB024613469B0013449A001A447B68CA
:104EA0005B685B00B2FBF3F5FEF7D2FB02461346EC
:104EB0009B0013449A001A447B685B685B00B2FB5A
:104EC000F3F3474AA2FB03235B09642202FB03F3CB
:104ED000EB1ADB003233424AA2FB03235B0903F0E7
:104EE00007027B681B6822449A60E7E07B681B68C6
:104EF000394A934204D07B681B68384A934271D187
:104F0000FEF7BAFB024613469B0013449A001A446C
:104F10007B685B689B00B2FBF3F3314AA2FB03237F
:104F20005B091C01FEF7A8FB024613469B001344D5
:104F30009A001A447B685B689B00B2FBF3F5FEF7AE
:104F40009BFB024613469B0013449A001A447B685D
:104F50005B689B00B2FBF3F3214AA2FB03235B09CE
:104F6000642202FB03F3EB1A1B0132331C4AA2FB3F
:104F700003235B0903F0F0031C44FEF77DFB0246AC
:104F800013469B0013449A001A447B685B689B009D
:104F9000B2FBF3F5FEF770FB024613469B00134489
:104FA0009A001A447B685B689B00B2FBF3F30C4ADF
:104FB000A2FB03235B09642202FB03F3EB1A1B0130
:104FC0003233074AA2FB03235B0903F00F027B681D
:104FD0001B6822449A6071E00010014000140140F7
:104FE0001F85EB51FEF734FB024613469B0013442A
:104FF0009A001A447B685B689B00B2FBF3F3314A6A
:10500000A2FB03235B091C01FEF722FB02461346A9
:105010009B0013449A001A447B685B689B00B2FBB8
:10502000F3F5FEF715FB024613469B0013449A0066
:105030001A447B685B689B00B2FBF3F3214AA2FB36
:1050400003235B09642202FB03F3EB1A1B013233D7
:105050001C4AA2FB03235B0903F0F0031C44FEF788
:10506000F7FA024613469B0013449A001A447B68E1
:105070005B689B00B2FBF3F5FEF7EAFA02461346C3
:105080009B0013449A001A447B685B689B00B2FB48
:10509000F3F30C4AA2FB03235B09642202FB03F334
:1050A000EB1A1B013233074AA2FB03235B0903F00F
:1050B0000F027B681B6822449A60FFE700BF10372D
:1050C000BD46B0BD1F85EB5180B487B000AFF8601E
:1050D000B9601346FB71FB79022B65D1BB68414A6D
:1050E000934206D9BB68404A934202D80F237B61A2
:1050F00062E0BB683C4A934206D9BB683B4A934294
:1051000002D80E237B6157E0BB68384A934206D928
:10511000BB68374A934202D80D237B614CE0BB68E1
:10512000334A934206D9BB68324A934202D80C23D1
:105130007B6141E0BB682F4A934206D9BB682E4A87
:10514000934202D80B237B6136E0BB682A4A934224
:1051500006D9BB68294A934202D80A237B612BE017
:10516000BB68264A934206D9BB68254A934202D8B7
:1051700009237B6120E0BB68214A934206D9BB68C2
:10518000204A934202D808237B6115E0BB681D4A80
:10519000934206D9BB681C4A934202D807237B611D
:1051A0000AE006237B6107E0FB79002B02D109238B
:1051B0007B6101E009237B61FB68DB6823F47052AB
:1051C000FB68DA60FB68DA687B699B0203F4705362
:1051D0001A43FB68DA60002318461C37BD465DF8A9
:1051E000047B7047BFACD800BFE1E400FF23F400AC
:1051F0007F7306019F491A01FF2C31013FA44C0126
:10520000FF356E011FABA601FF47E80180B485B0F2
:1052100000AF786039600023FB603B689B0143F07E
:1052200020027B681A61FB680133FB60FB68094A56
:10523000934201D9032306E07B681B6903F0200336
:10524000202BF0D0002318461437BD465DF8047BB0
:10525000704700BF400D030080B487B000AF786096
:105260007B683B613B6903F500639B6803F00603C1
:10527000FB60FB68002B02D10023FB750AE0FB6892
:10528000022B02D0FB68062B02D10223FB7501E042
:105290000F23FB75FB7D18461C37BD465DF8047B6C
:1052A000704780B485B000AF786039607B68FB6080
:1052B0003B681B78BB603B685B78012B3AD1FB688D
:1052C00003F50063DA693B681B7803F00F030121E3
:1052D00001FA03F39BB2F96801F500611343CB6156
:1052E000BB685A01FB68134403F510631B6803F4A1
:1052F0000043002B55D1BB685A01FB68134403F5EA
:1053000010631A683B689B68C3F30A013B68DB784B
:105310009B041943BB689B050B431343BA685101B7
:10532000FA680A4402F5106243F0805343F40043E4
:10533000136036E0FB6803F50063DA693B681B78AD
:1053400003F00F03012101FA03F31B04F96801F5CF
:1053500000611343CB61BB685A01FB68134403F53A
:1053600030631B6803F40043002B1AD1BB685A0159
:10537000FB68134403F530631A683B689B68C3F30A
:105380000A013B68DB789B040B431343BA68510165
:10539000FA680A4402F5306243F0805343F4004354
:1053A0001360002318461437BD465DF8047B704730
:1053B00080B58AB002AFF860B9601346FB71FB6834
:1053C000FB61BB681B78BB61BB685B78012B40F05D
:1053D0005C81BB685B69002B32D1BB695A01FB69F8
:1053E000134403F510631B69BA695101FA690A4451
:1053F00002F5106223F0FF5323F4C0131361BB695D
:105400005A01FB69134403F510631B69BA69510122
:10541000FA690A4402F5106243F400231361BB6980
:105420005A01FB69134403F510631B69BA69510102
:10543000FA690A4402F51062DB0CDB04136174E0C4
:10544000BB695A01FB69134403F510631B69BA6910
:105450005101FA690A4402F51062DB0CDB041361A6
:10546000BB695A01FB69134403F510631B69BA69F0
:105470005101FA690A4402F5106223F0FF5323F444
:10548000C0131361BB695A01FB69134403F5106330
:105490001A69BB685969BB689B680B44591EBB6895
:1054A0009B68B1FBF3F3D9049D4B0B40B9694801EC
:1054B000F969014401F5106113430B61BB695A019D
:1054C000FB69134403F510631A69BB685B69C3F396
:1054D0001203B9694801F969014401F510611343E8
:1054E0000B61BB68DB78012B1FD1BB695A01FB69DB
:1054F000134403F510631B69BA695101FA690A4440
:1055000002F5106223F0C0431361BB695A01FB69C5
:10551000134403F510631B69BA695101FA690A441F
:1055200002F5106243F000531361FB79012B4BD15C
:10553000BB681B69002B09D0BB695A01FB69134486
:1055400003F510631A46BB681B695361BB68DB78BF
:10555000012B28D1FB6903F500639B6803F480737A
:10556000002B10D1BB695A01FB69134403F510638A
:105570001B68BA695101FA690A4402F5106243F0E6
:10558000005313600FE0BB695A01FB69134403F534
:1055900010631B68BA695101FA690A4402F5106286
:1055A00043F080531360BB695A01FB69134403F550
:1055B00010631B68BA695101FA690A4402F5106266
:1055C00043F0044313602FE1BB695A01FB691344A4
:1055D00003F510631B68BA695101FA690A4402F5C0
:1055E000106243F004431360BB68DB78012B15D0D5
:1055F000BB685B69002B00F01781FB6903F5006352
:105600005A6BBB681B7803F00F03012101FA03F307
:10561000F96901F5006113434B6305E1FB6903F58B
:1056200000639B6803F48073002B10D1BB695A019F
:10563000FB69134403F510631B68BA695101FA69E9
:105640000A4402F5106243F0005313600FE0BB6997
:105650005A01FB69134403F510631B68BA695101D1
:10566000FA690A4402F5106243F080531360BB6884
:10567000D968BB681A78BB685B6998B2FB790093FC
:105680000346F86800F02BFACEE0BB695A01FB69CB
:10569000134403F530631B69BA695101FA690A447E
:1056A00002F53062DB0CDB041361BB695A01FB6954
:1056B000134403F530631B69BA695101FA690A445E
:1056C00002F5306223F0FF5323F4C0131361BB686B
:1056D0005B69002B26D1BB695A01FB69134403F5B2
:1056E00030631A69BB689B68C3F31203B969480148
:1056F000F969014401F5306113430B61BB695A013B
:10570000FB69134403F530631B69BA695101FA69F7
:105710000A4402F5306243F40023136136E000BF0F
:105720000000F81FBB685A69BB689B6813445A1E87
:10573000BB689B68B2FBF3F3FB82BB695A01FB6950
:10574000134403F530631A69FB8AD904394B0B40C3
:10575000B9694801F969014401F5306113430B61EE
:10576000BB695A01FB69134403F530631A69BB68CE
:105770009B68F98A01FB03F3C3F31203B96948017B
:10578000F969014401F5306113430B61FB79012B89
:105790000DD1BB68DB68002B09D0BB68D968BB6939
:1057A0005A01FB69134403F530630A465A61BB682A
:1057B000DB78012B28D1FB6903F500639B6803F4B8
:1057C0008073002B10D1BB695A01FB69134403F5A8
:1057D00030631B68BA695101FA690A4402F5306204
:1057E00043F0005313600FE0BB695A01FB69134497
:1057F00003F530631B68BA695101FA690A4402F57E
:10580000306243F080531360BB695A01FB69134453
:1058100003F530631B68BA695101FA690A4402F55D
:10582000306243F004431360002318462037BD461E
:1058300080BD00BF0000F81F80B487B000AFF860E3
:10584000B9601346FB71FB687B61BB681B783B61E9
:10585000BB685B78012B40F0CD80BB685B69002B97
:1058600032D13B695A017B69134403F510631B690C
:105870003A6951017A690A4402F5106223F0FF5334
:1058800023F4C01313613B695A017B69134403F588
:1058900010631B693A6951017A690A4402F5106282
:1058A00043F4002313613B695A017B69134403F5F8
:1058B00010631B693A6951017A690A4402F5106262
:1058C000DB0CDB0413614EE03B695A017B69134436
:1058D00003F510631B693A6951017A690A4402F5BC
:1058E0001062DB0CDB0413613B695A017B691344D2
:1058F00003F510631B693A6951017A690A4402F59C
:10590000106223F0FF5323F4C0131361BB685A697C
:10591000BB689B689A4203D9BB689A68BB685A61A6
:105920003B695A017B69134403F510631B693A69AB
:1059300051017A690A4402F5106243F400231361AD
:105940003B695A017B69134403F510631A69BB680C
:105950005B69C3F31203396948017969014401F5B0
:10596000106113430B61FB79012B1ED1BB681B69CE
:10597000002B09D03B695A017B69134403F510637E
:105980001A46BB681B6953613B695A017B69134422
:1059900003F510631B683A6951017A690A4402F5FC
:1059A000106243F00443136092E03B695A017B6943
:1059B000134403F510631B683A6951017A690A447C
:1059C00002F5106243F004431360BB685B69002B6F
:1059D0007ED07B6903F500635A6BBB681B7803F0CC
:1059E0000F03012101FA03F3796901F50061134303
:1059F0004B636DE03B695A017B69134403F53063E7
:105A00001B693A6951017A690A4402F53062DB0C7C
:105A1000DB0413613B695A017B69134403F530636E
:105A20001B693A6951017A690A4402F5306223F030
:105A3000FF5323F4C0131361BB685B69002B03D0D1
:105A4000BB689A68BB685A613B695A017B69134419
:105A500003F530631B693A6951017A690A4402F51A
:105A6000306243F4002313613B695A017B6913449C
:105A700003F530631A69BB689B68C3F31203396985
:105A800048017969014401F5306113430B61FB79E9
:105A9000012B0DD1BB68DB68002B09D0BB68D9682E
:105AA0003B695A017B69134403F530630A465A6126
:105AB0003B695A017B69134403F530631B683A69FB
:105AC00051017A690A4402F5306243F004431360DD
:105AD000002318461C37BD465DF8047B704780B430
